:100000000C9434000C9451000C9451000C94510049
:100010000C9451000C9451000C9451000C9451001C
:100020000C9451000C9451000C9451000C9451000C
:100030000C9451000C9451000C947F010C945100CD
:100040000C9451000C9451000C9496010C94C10135
:100050000C9451000C9451000C9451000C945100DC
:100060000C9451000C94510011241FBECFEFD8E026
:10007000DEBFCDBF11E0A0E0B1E0EEEDFAE002C0DE
:1000800005900D92A838B107D9F722E0A8E8B1E0B1
:1000900001C01D92A433B207E1F70E941C010C9429
:1000A0006D050C94000084B5826084BD85B58560C3
:1000B00085BDEEE6F0E08081826080838CE987BDBB
:1000C00016BC089514BC15BCEEE6F0E080818D7F6F
:1000D00080831092EE011092ED010895CF93DF938B
:1000E000EB0124E6E9E8F1E0DF011D922A95E9F74A
:1000F0000E9434020E9453008091ED019091EE0124
:10010000C817D9077CF00E944302892BA9F30E94EB
:1001100004028093880168E871E089E891E00E9418
:100120007802F1CF0E94620089E891E0DF91CF91DF
:10013000089587E090E00E94EB01789484B1886391
:1001400084B91092EE011092ED0168EC70E080E04D
:1001500091E00E946E006CEB72E089E091E00E94F9
:100160006E0068EC70E081E391E00E946E0068EC44
:1001700070E08FE391E00E946E0068EC70E08AE42A
:1001800091E00E946E0068EC70E088E591E00E94CA
:100190006E0008950F931F93CF93DF938C01FC01A2
:1001A00001900020E9F73197EF01C81BD90B84E6D5
:1001B000E9E8F1E0DF011D928A95E9F70E94430228
:1001C000892B59F00E9404028093880168E871E04D
:1001D00089E891E00E947802F1CF8091890188231B
:1001E00029F1E9E8F1E001900020E9F73197AF014A
:1001F0004958514030E0832F90E084179507B0F4C0
:10020000CC2391F0F8012081FC01E757FE4F80815B
:1002100028130AC0F801319680E003C0919192132F
:1002200003C08F5FC813FACF3F5FE5CF80E0DF9157
:10023000CF911F910F910895CF93DF93CDB7DEB784
:100240006E970FB6F894DEBF0FBECDBF0E94990027
:100250006894882484F86894992495F80F2EF6E71A
:10026000AF2EF1E0BF2EF02DCE0101966C018CE691
:1002700091E00E94CA008823D1F39FEF23ED80E331
:10028000915020408040E1F700C000000E9404022D
:10029000C0977C0181E791E00E94CA000E9404029D
:1002A0008C010E9404029801220F331F000F111FBE
:1002B000000F111F000F111F020F131F80519240DA
:1002C000080F191F0D30110511F495B804C00C303A
:1002D000110509F485B8FF92EF92BF92AF92DF92B9
:1002E000CF920E94830264E670E0C6010E946E0015
:1002F0000F900F900F900F900F900F90B8CF1F920C
:100300000F920FB60F9211248F939F938091ED015E
:100310009091EE0101969093EE018093ED019F91F3
:100320008F910F900FBE0F901F9018951F920F92F4
:100330000FB60F9211242F938F939F93EF93FF93F8
:100340008091C0002091C6008871E091F101EF5FBB
:10035000EF719091F001E91739F0E093F101F0E0CD
:10036000EC50FE4F208301C082E08093EF01FF91AB
:10037000EF919F918F912F910F900FBE0F901F9033
:1003800018951F920F920FB60F9211248F939F937F
:10039000EF93FF939091F3018091F201981769F028
:1003A000E091F201EF5FEF71E093F201F0E0EC5EBB
:1003B000FD4F80818093C60005C0E1ECF0E08081B4
:1003C0008F7D8083FF91EF919F918F910F900FBE52
:1003D0000F901F9018951092F3011092F201109255
:1003E000F1011092F001992324F422E02093C0003F
:1003F0009F779093C5008093C40088E98093C100E3
:1004000086E08093C20008959091F1018091F001FF
:10041000981791F0E091F001EF5FEF71E093F00138
:10042000F0E0EC50FE4F20818091EF0190E0982F9A
:100430008827820F911D089580E091E00895209112
:10044000F3012F5F2F719091F2012917E1F3E22F51
:10045000F0E0EC5EFD4F80832093F301E1ECF0E0EF
:100460008081806280830895CF93DF93EC0188813F
:10047000882331F021960E941F0289918111FBCFC0
:10048000DF91CF9108958091F1012091F00190E0EA
:100490004F96821B91096FE170E00E94500208950F
:1004A00097FB072E16F4009407D077FD09D00E9421
:1004B000640207FC05D03EF4909581959F4F089506
:1004C000709561957F4F0895AA1BBB1B51E107C032
:1004D000AA1FBB1FA617B70710F0A61BB70B881FD4
:1004E000991F5A95A9F780959095BC01CD01089563
:1004F000FB01DC010D900020E9F7119701900D92AE
:100500000020E1F70895AEE0B0E0E9E8F2E00C94F5
:1005100044050D891E8986E08C831A8309838FEF39
:100520009FE79E838D83AE01475E5F4F6F89788D15
:10053000CE0101960E94A502EF81F885E00FF11F20
:1005400010822E96E4E00C946005ABE0B0E0EBEA9C
:10055000F2E00C9436056C017B018A01FC011782E4
:100560001682838181FFCCC1CE0101963C01F60148
:100570009381F70193FD859193FF81917F018823FA
:1005800009F4BAC1853239F493FD859193FF8191C5
:100590007F01853229F4B60190E00E949C04E7CFE8
:1005A000912C212C312CFFE1F315D8F08B3279F00E
:1005B00038F4803279F08332A1F4232D20611DC0FC
:1005C0008D3261F0803369F4232D216016C0832DB4
:1005D0008260382EE32DE4603E2E2AC0F32DF860B1
:1005E0001DC037FC2DC020ED280F2A3040F08E3280
:1005F000B9F436FC81C1232D2064322E19C036FE99
:1006000006C08AE0989E200D1124922E11C0EAE0C7
:100610002E9E200D1124222EF32DF0623F2E08C0B5
:100620008C3621F4832D8068382E02C0883641F440
:10063000F70193FD859193FF81917F018111B3CFE4
:10064000982F9F7D9554933028F40C5F1F4F9FE3A4
:1006500099830DC0833631F0833771F0833509F00B
:1006600059C021C0F801808189830E5F1F4F882403
:100670008394912C530113C02801F2E04F0E511CBA
:10068000F801A080B18036FE03C0692D70E002C081
:100690006FEF7FEFC5010E9491044C018201F32DA1
:1006A000FF773F2E16C0280122E0420E511CF801B0
:1006B000A080B18036FE03C0692D70E002C06FEFEC
:1006C0007FEFC5010E9486044C01F32DF0683F2E98
:1006D000820133FC1BC0822D90E088169906B0F48D
:1006E000B60180E290E00E949C042A94F4CFF501C8
:1006F00037FC859137FE81915F01B60190E00E9441
:100700009C0421102A9421E0821A910881149104FA
:1007100071F7E8C0843611F0893641F5F80137FEEB
:1007200007C060817181828193810C5F1F4F08C077
:1007300060817181072E000C880B990B0E5F1F4F93
:10074000F32DFF763F2E97FF09C090958095709509
:1007500061957F4F8F4F9F4FF0683F2E2AE030E02A
:10076000A3010E94D804882E861845C0853731F42D
:10077000232D2F7EB22E2AE030E025C0932D997FC5
:10078000B92E8F36C1F018F4883579F0B5C08037AE
:1007900019F0883721F0B0C0E92FE061BE2EB4FE19
:1007A0000DC0FB2DF460BF2E09C034FE0AC0292FF6
:1007B0002660B22E06C028E030E005C020E130E01F
:1007C00002C020E132E0F801B7FE07C0608171810C
:1007D000828193810C5F1F4F06C06081718180E030
:1007E00090E00E5F1F4FA3010E94D804882E861848
:1007F000FB2DFF773F2E36FE0DC0232D2E7FA22E20
:10080000891458F434FE0BC032FC09C0832D8E7E4F
:10081000A82E05C0B82CA32C03C0B82C01C0B92C3D
:10082000A4FE0FC0FE01E80DF11D8081803321F48C
:100830009A2D997EA92E09C0A2FE06C0B394B39446
:1008400004C08A2D867809F0B394A3FC11C0A0FEE1
:1008500006C0B21488F4280C922C9B180EC0B21457
:1008600060F4B60180E290E00E949C04B394F7CF5C
:10087000B21418F42B1802C0982C212CA4FE10C01E
:10088000B60180E390E00E949C04A2FE17C0A1FC88
:1008900003C088E790E002C088E590E0B6010CC094
:1008A0008A2D867859F0A1FE02C08BE201C080E259
:1008B000A7FC8DE2B60190E00E949C04891438F4F4
:1008C000B60180E390E00E949C049A94F7CF8A944A
:1008D000F301E80DF11D8081B60190E00E949C04B7
:1008E0008110F5CF222009F442CEB60180E290E0DB
:1008F0000E949C042A94F6CFF6018681978102C05B
:100900008FEF9FEF2B96E2E10C945205FC010590CE
:10091000615070400110D8F7809590958E0F9F1F01
:100920000895FC016150704001900110D8F7809546
:1009300090958E0F9F1F08950F931F93CF93DF9372
:10094000FB01238121FD03C08FEF9FEF2CC022FF0D
:1009500016C046815781248135814217530744F4DC
:10096000A081B1819D012F5F3F4F318320838C9304
:10097000268137812F5F3F4F3783268314C08B0139
:10098000EC01FB010084F185E02D0995892BE1F64E
:10099000D80116968D919C911797019617969C9366
:1009A0008E931697CE01DF91CF911F910F910895ED
:1009B000FA01AA27283051F1203181F1E8946F9390
:1009C0006E7F6E5F7F4F8F4F9F4FAF4FB1E03ED036
:1009D000B4E03CD0670F781F891F9A1FA11D680FD4
:1009E000791F8A1F911DA11D6A0F711D811D911D07
:1009F000A11D20D009F468943F912AE0269F11247C
:100A00003019305D3193DEF6CF010895462F4770DF
:100A1000405D4193B3E00FD0C9F7F6CF462F4F703A
:100A2000405D4A3318F0495D31FD4052419302D098
:100A3000A9F7EACFB4E0A69597958795779567953E
:100A4000BA95C9F700976105710508959B01AC013E
:100A50000A2E06945795479537952795BA95C9F765
:100A6000620F731F841F951FA01D08952F923F9240
:100A70004F925F926F927F928F929F92AF92BF92AE
:100A8000CF92DF92EF92FF920F931F93CF93DF935A
:100A9000CDB7DEB7CA1BDB0B0FB6F894DEBF0FBEB7
:100AA000CDBF09942A88398848885F846E847D8404
:100AB0008C849B84AA84B984C884DF80EE80FD8006
:100AC0000C811B81AA81B981CE0FD11D0FB6F8947C
:0E0AD000DEBF0FBECDBFED010895F894FFCF3D
:100ADE0041542B5253540D0A0041542B43574A4153
:100AEE00503D22537562617368277320576966699A
:100AFE00222C226261737461696E313233220D0AC7
:100B0E000041542B43574D4F44453D330D0A004190
:100B1E00542B43494653520D0A0041542B4349501E
:100B2E004D55583D310D0A0041542B434950534504
:100B3E00525645523D312C38300D0A002B49504447
:100B4E000070696E3D0041542B434950434C4F5346
:080B5E00453D25640D0A00006D
:00000001FF
