:100000000C9434000C9451000C9451000C94510049
:100010000C9451000C9451000C9451000C9451001C
:100020000C9451000C946F020C9451000C945100EC
:100030000C9451000C9451000C9451000C945100FC
:100040000C9451000C9451000C94DB020C940603A8
:100050000C9451000C9451000C9451000C945100DC
:100060000C9451000C94510011241FBECFEFD8E026
:10007000DEBFCDBF11E0A0E0B1E0E8E6FDE002C0E8
:1000800005900D92AC38B107D9F722E0ACE8B1E0A9
:1000900001C01D92A134B207E1F70E9400020C9446
:1000A000B2060C9400002FB7F89460919001709103
:1000B000910180919201909193012FBF0895E1EBFE
:1000C000F0E0808184608083E0E7F0E080818160FF
:1000D00080831092B20008950F931F930E945300E3
:1000E0006093F8017093F9018093FA019093FB01FA
:1000F0000E9449039923FCF40E9453000091F801E7
:100100001091F9012091FA013091FB01DC01CB0142
:10011000801B910BA20BB30B009100011091010108
:10012000209102013091030180179107A207B307C4
:10013000F8F28FEF9FEF1F910F9108958F929F928A
:10014000AF92BF92CF92DF92EF92FF920F931F93E5
:10015000CF93DF935C018B01000F111F060F171F58
:10016000000F111F080F191F8017910710F5DC01F0
:1001700012968D919C911397892B39F0F50115C03A
:1001800082819381892B89F401C0F5019F012A198D
:100190003B09359527954BEA5AEA249FC001259FD4
:1001A000900D349F900D112478C03696E017F1071A
:1001B00038F30E946C0099230CF46DC0A016B106B0
:1001C000C0F7E50168817981CC80DD80FB01EC0D11
:1001D000FD1D208130E082179307D1F4BFEFCB1AC9
:1001E000DB0ADD82CC822A813B81C216D30609F06C
:1001F0004CC09E012A193B09359527954BEA5AEACE
:10020000249FC001259F900D349F900D112445C05F
:10021000C114D104D1F1EC80FD80A70141505109F6
:100220005D834C83FB01E40FF51F208130E08217D2
:10023000930749F54115510519F4FD82EC8225C05B
:10024000F601E41BF50B4B018E0E9F1EDB013C916A
:10025000D4012C913213DFCFDB0111963196E60FDA
:10026000F71F20E030E004C08D909190891005C008
:100270002F5F3F4F24173507B8F34217530759F63E
:10028000FD82EC8202C0452B31F62696C017D107BD
:1002900008F498CF8ECF8FEF9FEFDF91CF911F9112
:1002A0000F91FF90EF90DF90CF90BF90AF909F9015
:1002B0008F900895CF93DF9300D000D000D0CDB7BA
:1002C000DEB7FE01319626E0DF011D922A95E9F79F
:1002D0009A8389837C836B8361E070E0CF010E9405
:1002E0009E0021E0892B09F020E0822F26960FB690
:1002F000F894DEBF0FBECDBFDF91CF910895FC0112
:1003000001900020E9F73197BF01681B790B0E942B
:100310005A010895CF92DF92EF92FF921F93CF93ED
:10032000DF9300D0CDB7DEB77B01142F24E6E4E9DC
:10033000F1E0DF011D922A95E9F70E9479030E94FE
:1003400053009B01AC012E0D3F1D411D511D690144
:100350007A010E9453006C157D058E059F0580F47F
:100360000E948803892BA9F30E9449038A831B8278
:10037000BE016F5F7F4F84E991E00E94BD03F0CF23
:10038000112321F084E991E00E94790384E991E04E
:100390000F900F90DF91CF911F91FF90EF90DF9022
:1003A000CF90089584B1886384B941E060ED77E02F
:1003B00084E091E00E948A0141E068E57BE18DE004
:1003C00091E00E948A0141E060ED77E085E391E0F1
:1003D0000E948A0141E060ED77E083E491E00E94B1
:1003E0008A0141E060ED77E08EE491E00E948A01AD
:1003F00041E060ED77E08CE591E00E948A0108958C
:10040000CF93DF93CDB7DEB76E970FB6F894DEBF0C
:100410000FBECDBF0E945F0087E690E00E943003D0
:1004200078940E94D2016894882484F8689499246E
:1004300095F80F2EFBE7AF2EF1E0BF2EF02DCE0189
:1004400001966C010E948803892BE1F380E791E01B
:100450000E947F018823B1F39FEF23ED80E3915049
:1004600020408040E1F700C000000E944903C0978F
:100470007C0186E791E00E947F010E9449038C0184
:100480000E9449039801220F331F000F111F000F14
:10049000111F000F111F020F131F80519240080FF0
:1004A000191F0D30110511F495B804C00C30110559
:1004B00009F485B8FF92EF92BF92AF92DF92CF928C
:1004C0000E94C80341E068EE73E0C6010E948A0101
:1004D0000F900F900F900F900F900F90B3CF1F922F
:1004E0000F920FB60F9211248F939F93AF93BF93E8
:1004F0008091900190919101A0919201B09193010E
:100500000196A11DB11D8093900190939101A0933C
:100510009201B093930180918C0190918D01A091F3
:100520008E01B0918F010396A11DB11D80938C01A6
:1005300090938D01A0938E01B0938F0180918C01D7
:1005400090918D01A0918E01B0918F018D37910511
:10055000A105B10538F180918C0190918D01A09198
:100560008E01B0918F018D579109A109B109809336
:100570008C0190938D01A0938E01B0938F01809197
:10058000900190919101A0919201B09193010196F7
:10059000A11DB11D8093900190939101A0939201B0
:1005A000B0939301BF91AF919F918F910F900FBE28
:1005B0000F901F9018951F920F920FB60F92112453
:1005C0002F938F939F93EF93FF938091C00020917F
:1005D000C6008871E091FE01EF5FEF719091FD011F
:1005E000E91739F0E093FE01F0E0EF5FFD4F208363
:1005F00001C082E08093FC01FF91EF919F918F9168
:100600002F910F900FBE0F901F9018951F920F9271
:100610000FB60F9211248F939F93EF93FF939091B6
:1006200000028091FF01981769F0E091FF01EF5FF0
:10063000EF71E093FF01F0E0EF5DFD4F808180936B
:10064000C60005C0E1ECF0E080818F7D8083FF91E2
:10065000EF919F918F910F900FBE0F901F90189563
:10066000109200021092FF011092FE011092FD0103
:10067000992324F422E02093C0009F779093C50033
:100680008093C40088E98093C10086E08093C20013
:1006900008959091FE018091FD01981791F0E091ED
:1006A000FD01EF5FEF71E093FD01F0E0EF5FFD4FC3
:1006B00020818091FC0190E0982F8827820F911D66
:1006C000089580E091E00895209100022F5F2F713E
:1006D0009091FF012917E1F3E22FF0E0EF5DFD4F6C
:1006E000808320930002E1ECF0E0808180628083CF
:1006F0000895CF93DF93EC018881882331F0219610
:100700000E94640389918111FBCFDF91CF910895FD
:100710008091FE012091FD0190E04F96821B91098E
:100720006FE170E00E949503089597FB072E16F481
:10073000009407D077FD09D00E94A90307FC05D0DB
:100740003EF4909581959F4F0895709561957F4FE8
:100750000895AA1BBB1B51E107C0AA1FBB1FA61708
:10076000B70710F0A61BB70B881F991F5A95A9F75A
:1007700080959095BC01CD010895FB01DC010D90A1
:100780000020E9F7119701900D920020E1F70895FC
:10079000AEE0B0E0EEECF3E00C9489060D891E8922
:1007A00086E08C831A8309838FEF9FE79E838D8376
:1007B000AE01475E5F4F6F89788DCE0101960E9432
:1007C000EA03EF81F885E00FF11F10822E96E4E036
:1007D0000C94A506ABE0B0E0E0EFF3E00C947B06F0
:1007E0006C017B018A01FC0117821682838181FFE3
:1007F000CCC1CE0101963C01F6019381F70193FD36
:10080000859193FF81917F01882309F4BAC18532D4
:1008100039F493FD859193FF81917F01853229F40D
:10082000B60190E00E94E105E7CF912C212C312CFC
:10083000FFE1F315D8F08B3279F038F4803279F09B
:100840008332A1F4232D20611DC08D3261F08033ED
:1008500069F4232D216016C0832D8260382EE32D8C
:10086000E4603E2E2AC0F32DF8601DC037FC2DC079
:1008700020ED280F2A3040F08E32B9F436FC81C1C9
:10088000232D2064322E19C036FE06C08AE0989EC1
:10089000200D1124922E11C0EAE02E9E200D11246D
:1008A000222EF32DF0623F2E08C08C3621F4832DCA
:1008B0008068382E02C0883641F4F70193FD859197
:1008C00093FF81917F018111B3CF982F9F7D955424
:1008D000933028F40C5F1F4F9FE399830DC083363C
:1008E00031F0833771F0833509F059C021C0F80128
:1008F000808189830E5F1F4F88248394912C53013C
:1009000013C02801F2E04F0E511CF801A080B18005
:1009100036FE03C0692D70E002C06FEF7FEFC501A6
:100920000E94D6054C018201F32DFF773F2E16C0A1
:10093000280122E0420E511CF801A080B18036FE51
:1009400003C0692D70E002C06FEF7FEFC5010E9408
:10095000CB054C01F32DF0683F2E820133FC1BC008
:10096000822D90E088169906B0F4B60180E290E0FE
:100970000E94E1052A94F4CFF50137FC859137FEFA
:1009800081915F01B60190E00E94E10521102A9457
:1009900021E0821A91088114910471F7E8C084362D
:1009A00011F0893641F5F80137FE07C06081718189
:1009B000828193810C5F1F4F08C060817181072E77
:1009C000000C880B990B0E5F1F4FF32DFF763F2E07
:1009D00097FF09C090958095709561957F4F8F4FD7
:1009E0009F4FF0683F2E2AE030E0A3010E941D06D1
:1009F000882E861845C0853731F4232D2F7EB22EE0
:100A00002AE030E025C0932D997FB92E8F36C1F0B2
:100A100018F4883579F0B5C0803719F0883721F09F
:100A2000B0C0E92FE061BE2EB4FE0DC0FB2DF46016
:100A3000BF2E09C034FE0AC0292F2660B22E06C080
:100A400028E030E005C020E130E002C020E132E0E3
:100A5000F801B7FE07C060817181828193810C5FCC
:100A60001F4F06C06081718180E090E00E5F1F4FD4
:100A7000A3010E941D06882E8618FB2DFF773F2EAE
:100A800036FE0DC0232D2E7FA22E891458F434FE7D
:100A90000BC032FC09C0832D8E7EA82E05C0B82C59
:100AA000A32C03C0B82C01C0B92CA4FE0FC0FE01BA
:100AB000E80DF11D8081803321F49A2D997EA92EB5
:100AC00009C0A2FE06C0B394B39404C08A2D8678F0
:100AD00009F0B394A3FC11C0A0FE06C0B21488F4C0
:100AE000280C922C9B180EC0B21460F4B60180E260
:100AF00090E00E94E105B394F7CFB21418F42B18DC
:100B000002C0982C212CA4FE10C0B60180E390E016
:100B10000E94E105A2FE17C0A1FC03C088E790E097
:100B200002C088E590E0B6010CC08A2D867859F0A5
:100B3000A1FE02C08BE201C080E2A7FC8DE2B601FB
:100B400090E00E94E105891438F4B60180E390E05A
:100B50000E94E1059A94F7CF8A94F301E80DF11D04
:100B60008081B60190E00E94E1058110F5CF22203E
:100B700009F442CEB60180E290E00E94E1052A9499
:100B8000F6CFF6018681978102C08FEF9FEF2B96FB
:100B9000E2E10C949706FC01059061507040011051
:100BA000D8F7809590958E0F9F1F0895FC01615096
:100BB000704001900110D8F7809590958E0F9F1F7F
:100BC00008950F931F93CF93DF93FB01238121FDA2
:100BD00003C08FEF9FEF2CC022FF16C046815781C4
:100BE000248135814217530744F4A081B1819D01CE
:100BF0002F5F3F4F318320838C93268137812F5F76
:100C00003F4F3783268314C08B01EC01FB01008426
:100C1000F185E02D0995892BE1F6D80116968D9185
:100C20009C911797019617969C938E931697CE01D9
:100C3000DF91CF911F910F910895FA01AA272830D3
:100C400051F1203181F1E8946F936E7F6E5F7F4F99
:100C50008F4F9F4FAF4FB1E03ED0B4E03CD0670F15
:100C6000781F891F9A1FA11D680F791F8A1F911D68
:100C7000A11D6A0F711D811D911DA11D20D009F4B8
:100C800068943F912AE0269F11243019305D3193FA
:100C9000DEF6CF010895462F4770405D4193B3E0E3
:100CA0000FD0C9F7F6CF462F4F70405D4A3318F08A
:100CB000495D31FD4052419302D0A9F7EACFB4E03B
:100CC000A6959795879577956795BA95C9F70097F3
:100CD0006105710508959B01AC010A2E0694579594
:100CE000479537952795BA95C9F7620F731F841FEB
:100CF000951FA01D08952F923F924F925F926F9281
:100D00007F928F929F92AF92BF92CF92DF92EF929B
:100D1000FF920F931F93CF93DF93CDB7DEB7CA1B1C
:100D2000DB0B0FB6F894DEBF0FBECDBF09942A8847
:100D3000398848885F846E847D848C849B84AA84EF
:100D4000B984C884DF80EE80FD800C811B81AA817C
:100D5000B981CE0FD11D0FB6F894DEBF0FBECDBF47
:080D6000ED010895F894FFCFA6
:100D6800E803000041542B5253540D0A0041542B00
:100D780043574A41503D2253756261736827732077
:100D880057696669222C224261737461696E313237
:100D980033220D0A0041542B43574D4F44453D33F0
:100DA8000D0A0041542B43494653520D0A00415441
:100DB8002B4349504D55583D310D0A0041542B43A2
:100DC80049505345525645523D312C38300D0A0092
:100DD8002B4950442C0070696E3D0041542B434907
:0C0DE80050434C4F53453D25640D0A005C
:00000001FF
